:020000040000FA
:100000000A128A11F82FFF1B0D2883137F188317FC
:100010000008840A0319FF0A080000308A00040857
:10002000840A820700340A34003414340034233440
:100030000034323400344B340034643400349634A9
:100040000034C83400342C340134F4340134203406
:100050002034203420342034203420342034203400
:1000600020342034203420342034203400344734E9
:100070006134733420344434653474346534633407
:100080007434653464342134003447346134733457
:1000900020344C346534763465346C343A3400346E
:1003E00000300A128A1138220A128A1101300A12C8
:1003F0008A1138220A128A11080083160313071083
:100400008312031307100630831603139F000A128A
:100410008A1120240A128A110800F9308316031366
:1004200092000C30831203139700043092000030C6
:10043000A000A1000A128A1199220A128A1108004A
:10044000292A0730F3007D30F200F20B252AF30B46
:10045000252A0130F0020030031CF103F102700A7A
:10046000031D362A710A031D362A372A212A08005D
:10047000F30083120313081173080A128A1152221F
:100480000A128A118312031388151A30F200F83009
:10049000F100F10B492AF20B492A000083120313E1
:1004A00088110800F000701C562A572A5B2A831214
:1004B000031308165E2A831203130812F01C612A24
:1004C000622A642A8816652A8812701D682A692A99
:1004D0006B2A08176C2A0813F01D6F2A702A722ADB
:1004E0008817732A88130800F401F501701C792A13
:1004F0007A2A802A7208F4070318F50A7308F507A8
:1005000001300310F20DF30DFF3E031D812A01306F
:100510000310F10CF00CFF3E031D882A70087104D3
:10052000031D932A942A762A7508F1007408F000B6
:100530000800043083120313210200300319200243
:10054000031CA32AA42AA82AFF30A0000330A1007C
:100550002108A3002008A2000310A30CA20C031082
:10056000A30CA20C2208950020080139A200A20EBB
:1005700017082206EF39220697002108A300200859
:10058000A2000310A30CA20C22080139A400A40E9F
:10059000A40D17082406DF39240697000800700808
:1005A00071040319D42AD52A022B0130F400E12A60
:1005B00001300310F00DF10DFF3E031DD92A01306B
:1005C000F407F11FE42AE52AD82A71087302031DF3
:1005D000EB2A70087202031CEE2AEF2AF52A700833
:1005E000F2027108031CF303F30201300310F10C53
:1005F000F00CFF3E031DF62A0130F402031D012B0F
:10060000022BE52A7308F1007208F0000800FA01D5
:10061000FB017608770403190E2B0F2B442B0130B6
:10062000FC001B2B01300310F60DF70DFF3E031DE0
:10063000132B0130FC07F71F1E2B1F2B122B013031
:100640000310FA0DFB0DFF3E031D202B77087902E6
:10065000031D2C2B76087802031C2F2B302B372BF5
:100660007608F8027708031CF903F9027A140130BE
:100670000310F70CF60CFF3E031D382B0130FC0273
:10068000031D432B442B1F2B7B08F7007A08F60031
:10069000080083120313A001A101722B200879071F
:1006A000FC007A08FB000318FB0AA01F582BFB0371
:1006B0007B08FD007D0883120313FF007C08840083
:1006C0000A128A1103200A128A110A128A11752449
:1006D0000A128A11013083120313A0070318A10A1A
:1006E0000030A10720087907FC007A08FB000318F6
:1006F000FB0AA01F7C2BFB037B08FD007D088312F7
:100700000313FF007C0884000A128A1103200A12D6
:100710008A11003A031D8D2B8E2B4E2B0800F600FC
:100720007603031D942B952BB32B74087F3EF900A1
:100730007908F50004300310F50CFF3E031D9B2BD8
:100740007508F7007908F8000F30F80577080A12E5
:100750008A1138220A128A1178080A128A1138225C
:100760000A128A11D62B02307606031DB82BB92B3C
:10077000D62B7408BF3EF9007908F5000430031049
:10078000F50CFF3E031DBF2B7508F7007908F80034
:100790000F30F80577080A128A1138220A128A11D6
:1007A00078080A128A1138220A128A1108000430C5
:1007B00083120313AA000030AB00A9010130AA0282
:1007C0000030031CAB03AB022A08253E84000A302C
:1007D000F0000030F1002308F3002208F2000A12B2
:1007E0008A11CF220A128A117008303E83138000CA
:1007F0000A30F6000030F700831203132308F900D3
:100800002208F8000A128A1107230A128A117708AF
:1008100083120313A3007608A20022082304031DF9
:10082000122C132CDE2B25302A07A4002408F900F3
:100830000030FA000A128A1149230A128A110800AC
:1008400000300A128A1152220A128A1103300A1247
:100850008A1138220A128A112130F5007630F4000C
:10086000F40B302CF50B302C000003300A128A11E7
:1008700038220A128A114830F5006C30F400F40B6B
:100880003F2CF50B3F2C000003300A128A1138224E
:100890000A128A1102300A128A1138220A128A11A7
:1008A00002300A128A1138220A128A1108300A12FA
:1008B0008A1138220A128A1100300A128A1138224B
:1008C0000A128A110C300A128A1138220A128A116D
:1008D00000300A128A1138220A128A1106300A12CE
:1008E0008A1138220A128A110800F4007408F200F2
:1008F0000F30F2057408F300F030F3058312031390
:1009000008157308F10004300310F10CFF3E031DBD
:10091000842C71080A128A1152220A128A11831237
:10092000031388153330F5008230F6000000FF30E5
:10093000F5070318F60AFF30F6077608803AFF003D
:1009400080307F02031DA62C01307502031CA92CE8
:10095000AA2C962C83120313881172080A128A118A
:1009600052220A128A118312031388153330F700BA
:100970008230F8000000FF30F7070318F80AFF3054
:10098000F8077808803AFF0080307F02031DCA2CE8
:1009900001307702031CCD2CCE2CBA2C831203130A
:1009A000881108000030FC000030FB000030FA0025
:1009B0000030F90073087204710470040319E12C0B
:1009C000E22C2D2D0130FD00F02C0130F800031039
:1009D000F00DF10DF20DF30DF80BE72C0130FD07D2
:1009E000F31FF32CF42CE52C0130F8000310F90D63
:1009F000FA0DFB0DFC0DF80BF62C73087702031DA6
:100A00000B2D72087602031D0B2D71087502031D54
:100A10000B2D70087402031C0E2D0F2D1E2D700857
:100A2000F4027108031C710FF5027208031C720FA7
:100A3000F6027308031C730FF702791401300310D8
:100A4000F30CF20CF10CF00CFF3E031D1F2D0130D6
:100A5000FD02031D2C2D2D2DF42C7C08F3007B08AA
:100A6000F2007A08F1007908F000080083120313FD
:100A7000A6000030AA000030A9000030A800003015
:100A8000A700AB01AC01831203132608A2000230B9
:100A90000310A20DFF3E031D482D0310220D413807
:100AA0009F001F151F19552D562D522D8316031308
:100AB0001E0883120313A2001E08A3000030A31B0C
:100AC000FF30A400A5002208A7072308031103187C
:100AD000013E03196C2DA807240803110318013ED9
:100AE0000319732DA907250803110318013E0319E3
:100AF0007A2DAA070130AB070318AC0A0030AC0707
:100B00002C08803AFF0080307F02031D892D0A30B7
:100B10002B02031C8C2D8D2D432D0030F300003053
:100B2000F2000030F1000A30F000831203132A08AB
:100B3000F7002908F6002808F5002708F4000A1233
:100B40008A11D2240A128A11710883120313A10098
:100B50007008A000080083160313880107110A1209
:100B60008A11FD210A128A110A128A110D220A1213
:100B70008A110A128A11F0210A128A11F401F40A68
:100B800001300A128A118F230A128A113330F900B8
:100B90008030FA000A128A1149230A128A110030A1
:100BA0000A128A1136250A128A11831203132108A8
:100BB000B0002008AF003008A6002F08A5000A12D8
:100BC0008A1126260A128A11831203133008A10003
:100BD0002F08A0000A128A11B4260A128A11831261
:100BE00003132108AE002008AD000B30F4000130E3
:100BF0000A128A118F230A128A112030F9008030DC
:100C0000FA000A128A1149230A128A110B30F400E1
:100C100001300A128A118F230A128A1183120313D8
:100C20002E08A3002D08A2000A128A11D7230A1247
:100C30008A11E830F0000330F1000A128A112022F4
:100C40000A128A11CF2D0A128A110028003083124D
:100C500003132602C93003192502031C302E312E3E
:100C6000972E07140130B1070318B20A0030B207FB
:100C700000303202053003193102031C402E412E90
:100C8000662EFF30F6000330F7002608F100250835
:100C9000F000FF30F2000330F3000A128A117422D0
:100CA0000A128A117108F9007008F8000A128A11F4
:100CB00007230A128A11770883120313A10076080A
:100CC000A0000A128A1199220A128A110630831290
:100CD0000313A9001330A800AD30A700A70B6E2E98
:100CE000A80B6E2EA90B6E2EF401F40A02300A1224
:100CF0008A118F230A128A112530F9008030FA00F8
:100D00000A128A1149230A128A1183120313071047
:100D1000063083120313A9001330A800AD30A700DA
:100D2000A70B902EA80B902EA90B902EB32E071078
:100D3000B101B2010030A000A1000A128A1199226B
:100D40000A128A11F401F40A02300A128A118F235E
:100D50000A128A111530F9008030FA000A128A113D
:100D600049230A128A110800FF30F6000330F70009
:100D7000831203132108F1002008F0008830F200EC
:100D80001330F3000A128A1174220A128A117108B0
:100D9000F9007008F8000A128A1107230A128A1152
:100DA000770883120313A7007608A6002708F70028
:100DB0002608F6008830A2001330A300260822027D
:100DC000F0002708031C270A2302F100E830F20094
:100DD0000330F3000A128A1174220A128A11710870
:100DE000F9007008F8000A128A1107230A128A1102
:100DF000770883120313A5007608A4000A30F600D2
:100E00000030F7002508F9002408F8000A128A11BA
:100E100007230A128A11770883120313A9007608A0
:100E2000A800003029020A30031928020318192FDC
:100E30001A2F292F013084000A128A110D200A125C
:100E40008A11A0000A128A110D200A128A11A1002B
:100E5000F72F003029021430031928020318312F0C
:100E6000322F412F033084000A128A110D200A12FA
:100E70008A11A0000A128A110D200A128A11A100FB
:100E8000F72F003029022330031928020318492FB5
:100E90004A2F592F053084000A128A110D200A1298
:100EA0008A11A0000A128A110D200A128A11A100CB
:100EB000F72F003029023230031928020318612F5E
:100EC000622F712F073084000A128A110D200A1236
:100ED0008A11A0000A128A110D200A128A11A1009B
:100EE000F72F003029024B30031928020318792FFD
:100EF0007A2F892F093084000A128A110D200A12D4
:100F00008A11A0000A128A110D200A128A11A1006A
:100F1000F72F003029026430031928020318912F9B
:100F2000922FA12F0B3084000A128A110D200A1271
:100F30008A11A0000A128A110D200A128A11A1003A
:100F4000F72F003029029630031928020318A92F21
:100F5000AA2FB92F0D3084000A128A110D200A120F
:100F60008A11A0000A128A110D200A128A11A1000A
:100F7000F72F00302902C830031928020318C12FA7
:100F8000C22FD12F0F3084000A128A110D200A12AD
:100F90008A11A0000A128A110D200A128A11A100DA
:100FA000F72F013029022C30031928020318D92FFA
:100FB000DA2FE92F113084000A128A110D200A124B
:100FC0008A11A0000A128A110D200A128A11A100AA
:100FD000F72F133084000A128A110D200A128A1189
:100FE000A0000A128A110D200A128A11A10008001D
:100FF00083120313B101B20183010A128A11AB2DCE
:02400E00723FFF
:00000001FF
